:020000040800F2
:1000000000500020350F00089D0F00089D0F0008CC
:100010009D0F00089D0F00089D0F000800000000C4
:100020000000000000000000000000009D0F00081C
:100030009D0F00089D0F00089D0F00089D0F0008F0
:100040009D0F00089D0F00089D0F00089D0F0008E0
:100050009D0F00089D0F00089D0F00089D0F0008D0
:100060009D0F00089D0F00089D0F00089D0F0008C0
:100070009D0F00089D0F00089D0F00089D0F0008B0
:100080009D0F00089D0F00089D0F00089D0F0008A0
:100090009D0F00089D0F00089D0F00089D0F000890
:1000A0009D0F00089D0F00089D0F00089D0F000880
:1000B0009D0F00089D0F00089D0F00089D0F000870
:1000C0009D0F00089D0F00089D0F00089D0F000860
:1000D0009D0F00089D0F00089D0F00089D0F000850
:1000E0009D0F0008000000009D0F00089D0F0008F4
:1000F0009D0F00089D0F00089D0F00089D0F000830
:100100009D0F00089D0F00089D0F00089D0F00081F
:100110009D0F00089D0F00089D0F00089D0F00080F
:0C0120009D0F00089D0F00089D0F0008B7
:10012C0010B5054C237833B9044B13B10448AFF325
:10013C0000800123237010BD440400200000000047
:10014C00DC14000808B5034B1BB103490348AFF39B
:10015C00008008BD0000000048040020DC140008EA
:10016C00A3F5803A704700BF174B002B08BF134B09
:10017C009D46FFF7F5FF00218B460F461348144AA6
:10018C00121A01F06BF80E4B002B00D098470D4B58
:10019C00002B00D098470020002104000D000D48D2
:1001AC00002802D00C4801F017F901F033F82000B8
:1001BC00290000F05FF801F01DF800BF00000800F6
:1001CC0000000000000000000000000044040020BB
:1001DC0098040020E5130008F113000880B582B0E4
:1001EC0000AF03460A46FB711346BB71B979FB7924
:1001FC000222184600F056F8022318460837BD466E
:10020C0080BD80B582B000AF03460A46FB71134631
:10021C00BB71B979FB790122184600F01DF9022354
:10022C0018460837BD4680BD80B582B000AF034686
:10023C000A46FB711346BB71B979FB79002218464B
:10024C0000F00AF9022318460837BD4680BD80B578
:10025C0082B000AF03460A46FB711346BB71BA79F4
:10026C00FB791146184600F07BF902231846083733
:10027C00BD4680BD80B500AF00F086FC422000F08A
:10028C00BFFC03210120FFF7A9FF01210120FFF78B
:10029C00A5FF03210120FFF7B4FF01210120FFF787
:1002AC00B0FFF6E780B485B000AF0346FB710B4698
:1002BC00BB7113467B710223FB73FB79032B7FD03D
:1002CC00032B00F3B980012B02D0022B3CD0B3E0FE
:1002DC00BB79072B17D85D4B1B68BA7992000F219D
:1002EC0001FA02F2D2431146584A0B401360574BA5
:1002FC001B687979BA79920001FA02F21146534AD5
:10030C000B4313609BE0BB790F2B1AD8BB79083BCE
:10031C00BB714E4B5B68BA7992000F2101FA02F265
:10032C00D2431146494A0B405360484B5B6879797C
:10033C00BA79920001FA02F21146444A0B43536017
:10034C007DE00023FB737AE0BB79072B17D8404B79
:10035C001B68BA7992006FF00F0101FA02F2114694
:10036C003B4A0B4013603A4B1B687979BA7992007F
:10037C0001FA02F21146364A0B4313605FE0BB7977
:10038C000F2B1AD8BB79083BBB71314B5B68BA7920
:10039C0092006FF00F0101FA02F211462C4A0B4049
:1003AC0053602B4B5B687979BA79920001FA02F2AF
:1003BC001146274A0B43536041E00023FB733EE098
:1003CC00BB79072B17D8234B1B68BA7992000F21E6
:1003DC0001FA02F2D24311461E4A0B4013601D4B28
:1003EC001B687979BA79920001FA02F21146194A1E
:1003FC000B43136023E0BB790F2B1AD8BB79083B56
:10040C00BB71144B5B68BA7992006FF00F0101FA63
:10041C0002F211460F4A0B4053600E4B5B68797920
:10042C00BA79920001FA02F211460A4A0B43536060
:10043C0005E00023FB7302E00023FB7300BFFB7B92
:10044C0018461437BD4680BC704700BF00080140F9
:10045C00000C01400010014080B485B000AF034691
:10046C00FB710B46BB7113467B710223FB73FB794B
:10047C00032B46D0032B64DC012B02D0022B20D0A3
:10048C005FE07B79012B0AD1324BDB68BA79012111
:10049C0001FA02F211462F4A0B43D36054E07B79E8
:1004AC00002B0BD12B4BDB68BA79012101FA02F23C
:1004BC00D2431146274A0B40D36045E00023FB731F
:1004CC0042E07B79012B0AD1234BDB68BA790121FD
:1004DC0001FA02F21146204A0B43D36034E07B79D7
:1004EC00002B0BD11C4BDB68BA79012101FA02F20B
:1004FC00D2431146184A0B40D36025E00023FB730E
:10050C0022E07B79012B0AD1144BDB68BA790121EB
:10051C0001FA02F21146114A0B43D36014E07B79C5
:10052C00002B0BD10D4BDB68BA79012101FA02F2D9
:10053C00D2431146094A0B40D36005E00023FB73FC
:10054C0002E00023FB7300BFFB7B18461437BD464B
:10055C0080BC704700080140000C014000100140B5
:10056C0080B485B000AF03460A46FB711346BB71DD
:10057C000223FB73FB79032B1CD0032B25DC012BF3
:10058C0002D0022B0BD020E0144BDB68BA7901218E
:10059C0001FA02F21146114A4B40D36018E0104B9D
:1005AC00DB68BA79012101FA02F211460C4A4B4080
:1005BC00D3600DE00B4BDB68BA79012101FA02F232
:1005CC001146084A4B40D36002E00023FB7300BF86
:1005DC00FB7B18461437BD4680BC704700080140B1
:1005EC00000C01400010014080B485B000AF034600
:1005FC003A60FB710B46BB710223FB73FB79032B37
:10060C001ED0032B28DC012B02D0022B0CD023E0B4
:10061C00164B9A68BB7922FA03F3DBB203F00103A1
:10062C00DAB23B681A701AE0114B9A68BB7922FA5D
:10063C0003F3DBB203F00103DAB23B681A700EE08D
:10064C000C4B9A68BB7922FA03F3DBB203F001037B
:10065C00DAB23B681A7002E00023FB7300BFFB7B2D
:10066C0018461437BD4680BC704700BF00080140D7
:10067C00000C01400010014080B485B000AF03466F
:10068C00FB710B46BB7113467B710223FB73BB7969
:10069C00032B38D0032B4FDC012B02D0022B19D0AB
:1006AC004AE0FB79002B07D17B794FF0113203FB29
:1006BC0002F2254B1A6041E0FB79012B07D17B79C3
:1006CC004FF0113203FB02F21F4B5A6036E000234D
:1006DC00FB7333E0FB79002B07D17B794FF01132A0
:1006EC0003FB02F2194B1A6028E0FB79012B07D1AE
:1006FC007B794FF0113203FB02F2144B5A601DE070
:10070C000023FB731AE0FB79002B07D17B794FF0A8
:10071C00113203FB02F20E4B1A600FE0FB79012B36
:10072C0007D17B794FF0113203FB02F2084B5A6070
:10073C0004E00023FB7301E00023FB73FB7B1846F2
:10074C001437BD4680BC704700080140000C0140C6
:10075C000010014080B485B000AF0346FB710B461E
:10076C00BB7113467B710223FB73BB79032B00F027
:10077C008880032B00F3C580012B02D0022B40D0C4
:10078C00BFE07B79012B09D1FB79002B06D1614BA2
:10079C00DB68604A43F0FF03D36031E07B79012BC7
:1007AC0009D1FB79012B06D15A4BDB68594A43F42A
:1007BC007F43D36024E07B79002B0DD1FB79002B98
:1007CC000AD1544BDB68534A23F0FF03D360514BDF
:1007DC00504ADB68D36013E07B79002B0DD1FB7999
:1007EC00012B0AD14B4BDB684A4A23F47F43D3607D
:1007FC00484B484ADB68D36002E00023FB7383E07C
:10080C0082E07B79012B09D1FB79002B06D1424B7D
:10081C00DB68414A43F0FF03D36031E07B79012B65
:10082C0009D1FB79012B06D13B4BDB683A4A43F4E7
:10083C007F43D36024E07B79002B0DD1FB79002B17
:10084C000AD1354BDB68344A23F0FF03D360324BBB
:10085C00314ADB68D36013E07B79002B0DD1FB7937
:10086C00012B0AD12C4BDB682B4A23F47F43D3603A
:10087C00294B294ADB68D36002E00023FB7343E079
:10088C0042E07B79012B09D1FB79002B06D1234B5C
:10089C00DB68224A43F0FF03D36031E07B79012B04
:1008AC0009D1FB79012B06D11C4BDB681B4A43F4A5
:1008BC007F43D36024E07B79002B0DD1FB79002B97
:1008CC000AD1164BDB68154A23F0FF03D360134B98
:1008DC00124ADB68D36013E07B79002B0DD1FB79D6
:1008EC00012B0AD10D4BDB680C4A23F47F43D360F8
:1008FC000A4B0A4ADB68D36002E00023FB7303E077
:10090C0002E00023FB7300BFFB7B18461437BD4687
:10091C0080BC704700080140000C014000100140F1
:10092C0080B485B000AF0346FB710B46BB71134618
:10093C007B710223FB73FB79032B30D0032B43DC3D
:10094C00012B02D0022B15D03EE07B79012B05D177
:10095C00BB7901229A40214B1A6138E07B79002B3C
:10096C0005D1BB7901229A401C4B5A612FE0002320
:10097C00FB732CE07B79012B05D1BB7901229A40CA
:10098C00174B1A6123E07B79002B05D1BB7901222F
:10099C009A40134B5A611AE00023FB7317E07B79E2
:1009AC00012B05D1BB7901229A400E4B1A610EE046
:1009BC007B79002B05D1BB7901229A40094B5A61F6
:1009CC0005E00023FB7302E00023FB7300BFFB7BFD
:1009DC0018461437BD4680BC704700BF0008014064
:1009EC00000C01400010014080B485B000AF0346FC
:1009FC000A46FB711346BB710223FB73FB79032B75
:100A0C0079D0032B00F3B080012B02D0022B39D00C
:100A1C00AAE05A4B9B69BA79012101FA02F21146FC
:100A2C00564A0B439361554B9B69544A43F48033AC
:100A3C009361524B9B69514A23F4803393614F4B22
:100A4C009B694E4A43F4803393614C4B9B691B0C5E
:100A5C00DBB203F00103BB73BB7B002B0FD1474B05
:100A6C009B691B0CDBB203F00103BB73BB7B012B3B
:100A7C0002D10223FB737AE00323FB7377E0032399
:100A8C00FB7374E03E4B9B69BA79012101FA02F2C7
:100A9C0011463B4A0B439361394B9B69384A43F4EB
:100AAC0080339361364B9B69354A23F480339361D1
:100ABC00334B9B69324A43F480339361304B9B69CF
:100ACC001B0CDBB203F00103BB73BB7B002B0FD100
:100ADC002B4B9B691B0CDBB203F00103BB73BB7B81
:100AEC00012B02D10223FB7341E00323FB733EE095
:100AFC000323FB733BE0234B9B69BA79012101FA79
:100B0C0002F211461F4A0B4393611E4B9B691D4A0F
:100B1C0043F4803393611B4B9B691A4A23F4803353
:100B2C009361184B9B69174A43F480339361154BBF
:100B3C009B691B0CDBB203F00103BB73BB7B002B6B
:100B4C000FD1104B9B691B0CDBB203F00103BB7381
:100B5C00BB7B012B02D10223FB7308E00323FB7345
:100B6C0005E00323FB7302E00023FB7300BFFB7B58
:100B7C0018461437BD4680BC704700BF00080140C2
:100B8C00000C01400010014080B400AF1B4B1B68EF
:100B9C001A4A43F00103136000BF184B1B685B0833
:100BAC0003F00103002BF8D0144B5B68134A23F0BD
:100BBC0001035360114B5B68104A23F0F003536040
:100BCC000E4B0E4A5B6853600C4B5B680B4A23F46C
:100BDC00E0635360094B094A5B685360074B5B68E1
:100BEC00064A23F460535360044B044A5B68536019
:100BFC0002231846BD4680BC704700BF001002405F
:100C0C0080B485B000AF0346FB710223FB73FB7904
:100C1C001F2B0AD81A4B5B69FA79012101FA02F2EF
:100C2C001146174A0B43536123E0FB793F2B0DD838
:100C3C00FB79203BFB71124BDB69FA79012101FA3C
:100C4C0002F211460E4A0B43D36112E0FB795F2B83
:100C5C000DD8FB79403BFB71094B9B69FA7901215B
:100C6C0001FA02F21146064A0B43936101E000239C
:100C7C00FB73FB7B18461437BD4680BC704700BF26
:100C8C000010024080B485B000AF0346FB71022314
:100C9C00FB73FB791F2B0BD81B4B5B69FA7901217A
:100CAC0001FA02F2D2431146174A0B40536125E078
:100CBC00FB793F2B0ED8FB79203BFB71124BDB6988
:100CCC00FA79012101FA02F2D24311460E4A0B4085
:100CDC00D36113E0FB795F2B0ED8FB79403BFB71A2
:100CEC00094B9B69FA79012101FA02F2D2431146B0
:100CFC00054A0B40936101E00023FB73FB7B184614
:100D0C001437BD4680BC70470010024080B400AF61
:100D1C00054B1B68044A23F0040313600223184696
:100D2C00BD4680BC704700BF10E000E080B483B0CB
:100D3C0000AF0346FB80FB884FF47A7203FB02F290
:100D4C000F4B5A600E4B1B680D4A43F001031360A6
:100D5C0000BF0B4B1B681B0C03F00103002BF8D0DE
:100D6C00074B1B68064A23F001031360044B002257
:100D7C009A60022318460C37BD4680BC704700BFF2
:100D8C0010E000E080B485B000AF786039600223D9
:100D9C00FB733B68002B02D10123FB7314E00D4A5B
:100DAC003B6813600C4B01221A700C4A7B68536031
:100DBC000A4B1B68094A43F001031360074B1B687D
:100DCC00064A43F002031360FB7B18461437BD46FA
:100DDC0080BC7047640400206804002010E000E030
:100DEC0080B485B000AF786039600223FB733B6838
:100DFC00002B02D10123FB7314E00D4A3B681360F6
:100E0C000C4B00221A700C4A7B6853600A4B1B680F
:100E1C00094A43F001031360074B1B68064A43F071
:100E2C0002031360FB7B18461437BD4680BC704729
:100E3C00640400206804002010E000E080B485B059
:100E4C0000AF78600223FB737B68002B02D1012377
:100E5C00FB7306E0064B5A68054B9B68D21A7B68FD
:100E6C001A60FB7B18461437BD4680BC704700BF28
:100E7C0010E000E080B485B000AF78600223FB7313
:100E8C007B68002B02D10123FB7303E0044B9A68AF
:100E9C007B681A60FB7B18461437BD4680BC7047D4
:100EAC0010E000E080B400AF054B1B68044A23F04F
:100EBC000203136002231846BD4680BC704700BF76
:100ECC0010E000E080B582B000AF0023FB71134B43
:100EDC001B78012B0ED1124B1B68114A23F0020315
:100EEC0013600F4B1B680E4A23F0010313600C4B6D
:100EFC0000229A600B4B1B68002B02D0094B1B681D
:100F0C009847074B1B681B0CDBB203F00103DBB2E9
:100F1C00FB7100BF0837BD4680BD00BF68040020D0
:100F2C0010E000E06404002080B586B000AF134BE5
:100F3C007B61134B3B61134BBB60134BFB60134B3F
:100F4C007B6007E07A69131D7B613B69191D396170
:100F5C0012681A603A69BB689A42F3D304E0FB68E2
:100F6C001A1DFA6000221A60FA687B689A42F6D35E
:100F7C0000F050F9FFF77EF9FEE700BFF814000807
:100F8C00000000203C0400204404002098040020B1
:100F9C0080B400AFFEE700BF80B400AF00BFBD4619
:100FAC0080BC704780B400AF01231846BD4680BC9E
:100FBC00704780B582B000AF7860396000F082FA7B
:100FCC00034616221A604FF0FF3318460837BD4609
:100FDC0080BD80B582B000AF78604FF0FF3178688B
:100FEC00FFF7E7FFFEE780B586B000AFF860B960A9
:100FFC007A6000237B610AE0AFF300800146BB6896
:10100C005A1CBA60CAB21A707B6901337B617A6967
:10101C007B689A42F0DB7B6818461837BD4680BD6A
:10102C0080B586B000AFF860B9607A6000237B6150
:10103C0009E0BB685A1CBA601B781846AFF30080F5
:10104C007B6901337B617A697B689A42F1DB7B684F
:10105C0018461837BD4680BD80B483B000AF7860A9
:10106C004FF0FF3318460C37BD4680BC704780B438
:10107C0083B000AF786039603B684FF400525A601F
:10108C00002318460C37BD4680BC704780B483B033
:10109C0000AF7860012318460C37BD4680BC704702
:1010AC0080B485B000AFF860B9607A600023184650
:1010BC001437BD4680BC70470EB480B482B000AF0C
:1010CC0078604FF0FF3318460837BD4680BC03B03C
:1010DC00704780B582B000AF786000F0F3F903463A
:1010EC000A221A604FF0FF3318460837BD4680BD00
:1010FC0080B582B000AF786000F0E4F903460222BC
:10110C001A604FF0FF3318460837BD4680BD80B4D7
:10111C0083B000AF78604FF0FF3318460C37BD46F4
:10112C0080BC704780B483B000AF786039603B6896
:10113C004FF400525A60002318460C37BD4680BC51
:10114C00704780B582B000AF7860396000F0BAF9B2
:10115C0003461F221A604FF0FF3318460837BD466E
:10116C0080BD80B500AF00F0ADF903460B221A60CC
:10117C004FF0FF33184680BD80B584B000AFF860E7
:10118C00B9607A6000F09EF903460C221A604FF0A9
:10119C00FF3318461037BD4680BD80B584B000AF14
:1011AC007860124B1B68002B02D1104B104A1A604E
:1011BC000E4B1B68FB600D4B1A687B6813446A4628
:1011CC00934207D900F07EF903460C221A604FF0C7
:1011DC00FF3306E0054B1A687B681344034A13601F
:1011EC00FB6818461037BD4680BD00BF7004002058
:1011FC009805002008B50021044600F08BF8044B3C
:10120C001868C36B03B198472046FFF7E2FE00BF96
:10121C004415000870B50D4E0D4D761BB61006D05A
:10122C00002455F8043B01349847A642F9D1094EE5
:10123C00094D00F04FF9761BB61006D0002455F876
:10124C00043B01349847A642F9D170BD0000000060
:10125C00000000000000000000000000830730B513
:10126C0048D0541E002A3FD00346CAB201E0013CCC
:10127C003AD303F8012B9D07F9D1032C2DD9CDB20C
:10128C0045EA05250F2C45EA054536D9A4F110028F
:10129C0022F00F0C03F1200EE6444FEA121C03F16E
:1012AC00100242E9045542E9025510327245F8D158
:1012BC000CF1010214F00C0F03EB021204F00F0CF2
:1012CC0013D0ACF1040323F003030433134442F8AA
:1012DC00045B9342FBD10CF003042CB1CAB21C4446
:1012EC0003F8012B9C42FBD130BD64461346002C05
:1012FC00F4D1F9E703461446BFE71A46A446E0E7E3
:10130C00024B13B1024800F067B8704700000000B0
:10131C00F11300082DE9F04F83462D4B83B018686C
:10132C000F46CDF804B000F07DF82A4BD3F80080BE
:10133C00D8F848619EB14FF001094FF0000A74686B
:10134C00651E0CD4013406EB84047FB1D4F8003153
:10135C00BB420BD0013D6B1CA4F10404F5D11C4B1A
:10136C00186803B0BDE8F04F00F064B873682268E9
:10137C00013BAB420CBF7560C4F800A0002AE9D059
:10138C00D6F8880109FA05F10142D6F804B00BD160
:10139C00904772685A4512D1D8F84831B342D9D027
:1013AC001E46002ECBD1DAE7D6F88C0101420BD1C8
:1013BC000198D4F88010904772685A45ECD0D8F850
:1013CC004861002EBBD1CAE7D4F880009047E0E713
:1013DC003804002044150008002301461A4618461C
:1013EC0000F02AB838B5084B084D5B1B9C1007D091
:1013FC00043B1D44013C55F804399847002CF9D1A5
:10140C00BDE8384000F06CB800000000000000009F
:10141C00704700BF704700BF704700BF704700BFE8
:10142C00704700BF704700BF012070470120704714
:10143C00704700BF704700BF2DE9F047DFF87CA074
:10144C000646DAF8000098460F469146FFF7EAFF89
:10145C001B4B1B68D3F8484124B365681F2D26DC51
:10146C005EB96B1C0235DAF80000636044F8257035
:10147C00FFF7E0FF0020BDE8F087012304EB8501B6
:10148C00C1F88890D4F88821AB401A43022EC4F8D6
:10149C008821C1F80881E4D1D4F88C211343C4F815
:1014AC008C31DEE703F5A674C3F84841D5E7DAF8CA
:1014BC000000FFF7BFFF4FF0FF30DCE738040020DF
:1014CC0044150008014B1868704700BF0C00002041
:1014DC0000000000F8B500BFF8BC08BC9E46704781
:0C14EC00F8B500BFF8BC08BC9E46704775
:1014F8003B3E0B3E103E253E333E033E063E143E29
:101508000E3E0D3E243E123E273E023E183E093E48
:101518000A3E0000000000003B3E0B3E103E253E08
:10152800333E033E063E143E0E3E0D3E243E123E22
:10153800273E023E183E093E0A3E000010000020E9
:0815480024ECFF7F010000000C
:1015500000000000050000006C04002010000020C6
:1015600000000000FC02002064030020CC030020E7
:10157000000000000000000000000000000000006B
:10158000000000000000000000000000000000005B
:10159000000000000000000000000000000000004B
:1015A000000000000000000000000000000000003B
:1015B000000000000000000000000000000000002B
:1015C000000000000000000000000000000000001B
:1015D000000000000000000000000000000000000B
:1015E00000000000000000000000000000000000FB
:1015F00000000000000000000000000000000000EB
:1016000000000000000000000100000000000000D9
:101610000E33CDAB34126DE6ECDE05000B0000009E
:1016200000000000000000000000000000000000BA
:1016300000000000000000000000000000000000AA
:10164000000000000000000000000000000000009A
:10165000000000000000000000000000000000008A
:0C19800000000000000000007C040020BB
:04198C0051010008FD
:041990002D0100081D
:0400000508000F35AB
:00000001FF
